{
  "contractName": "PatientContract",
  "abi": [
    {
      "anonymous": false,
      "inputs": [
        {
          "indexed": false,
          "internalType": "uint256",
          "name": "id",
          "type": "uint256"
        }
      ],
      "name": "DeletePatientToDapp",
      "type": "event"
    },
    {
      "anonymous": false,
      "inputs": [
        {
          "indexed": false,
          "internalType": "uint256",
          "name": "id",
          "type": "uint256"
        },
        {
          "indexed": false,
          "internalType": "string",
          "name": "p_name",
          "type": "string"
        },
        {
          "indexed": false,
          "internalType": "string",
          "name": "p_mobileNo",
          "type": "string"
        },
        {
          "indexed": false,
          "internalType": "string",
          "name": "p_adharNo",
          "type": "string"
        },
        {
          "indexed": false,
          "internalType": "string",
          "name": "p_address",
          "type": "string"
        },
        {
          "indexed": false,
          "internalType": "string",
          "name": "p_age",
          "type": "string"
        },
        {
          "indexed": false,
          "internalType": "string",
          "name": "p_gender",
          "type": "string"
        },
        {
          "indexed": false,
          "internalType": "string",
          "name": "p_datetime",
          "type": "string"
        }
      ],
      "name": "RegisterPatientToDapp",
      "type": "event"
    },
    {
      "constant": true,
      "inputs": [],
      "name": "patientCount",
      "outputs": [
        {
          "internalType": "uint256",
          "name": "",
          "type": "uint256"
        }
      ],
      "payable": false,
      "stateMutability": "view",
      "type": "function"
    },
    {
      "constant": true,
      "inputs": [
        {
          "internalType": "uint256",
          "name": "",
          "type": "uint256"
        }
      ],
      "name": "patients",
      "outputs": [
        {
          "internalType": "uint256",
          "name": "id",
          "type": "uint256"
        },
        {
          "internalType": "string",
          "name": "p_name",
          "type": "string"
        },
        {
          "internalType": "string",
          "name": "p_mobileNo",
          "type": "string"
        },
        {
          "internalType": "string",
          "name": "p_adharNo",
          "type": "string"
        },
        {
          "internalType": "string",
          "name": "p_address",
          "type": "string"
        },
        {
          "internalType": "string",
          "name": "p_age",
          "type": "string"
        },
        {
          "internalType": "string",
          "name": "p_gender",
          "type": "string"
        },
        {
          "internalType": "string",
          "name": "p_datetime",
          "type": "string"
        }
      ],
      "payable": false,
      "stateMutability": "view",
      "type": "function"
    },
    {
      "constant": false,
      "inputs": [
        {
          "internalType": "string",
          "name": "_name",
          "type": "string"
        },
        {
          "internalType": "string",
          "name": "_mobileNo",
          "type": "string"
        },
        {
          "internalType": "string",
          "name": "_adharNo",
          "type": "string"
        },
        {
          "internalType": "string",
          "name": "_address",
          "type": "string"
        },
        {
          "internalType": "string",
          "name": "_age",
          "type": "string"
        },
        {
          "internalType": "string",
          "name": "_gender",
          "type": "string"
        },
        {
          "internalType": "string",
          "name": "_datetime",
          "type": "string"
        }
      ],
      "name": "registerPatientDapp",
      "outputs": [],
      "payable": false,
      "stateMutability": "nonpayable",
      "type": "function"
    },
    {
      "constant": false,
      "inputs": [
        {
          "internalType": "uint256",
          "name": "_id",
          "type": "uint256"
        }
      ],
      "name": "deletePatientDapp",
      "outputs": [],
      "payable": false,
      "stateMutability": "nonpayable",
      "type": "function"
    }
  ],
  "bytecode": "0x60806040526000805534801561001457600080fd5b50611300806100246000396000f3fe608060405234801561001057600080fd5b506004361061004c5760003560e01c806316f461cd1461005157806393119a8314610496578063a0303c41146107cc578063a65468ed146107ea575b600080fd5b610494600480360360e081101561006757600080fd5b810190808035906020019064010000000081111561008457600080fd5b82018360208201111561009657600080fd5b803590602001918460018302840111640100000000831117156100b857600080fd5b91908080601f016020809104026020016040519081016040528093929190818152602001838380828437600081840152601f19601f8201169050808301925050505050505091929192908035906020019064010000000081111561011b57600080fd5b82018360208201111561012d57600080fd5b8035906020019184600183028401116401000000008311171561014f57600080fd5b91908080601f016020809104026020016040519081016040528093929190818152602001838380828437600081840152601f19601f820116905080830192505050505050509192919290803590602001906401000000008111156101b257600080fd5b8201836020820111156101c457600080fd5b803590602001918460018302840111640100000000831117156101e657600080fd5b91908080601f016020809104026020016040519081016040528093929190818152602001838380828437600081840152601f19601f8201169050808301925050505050505091929192908035906020019064010000000081111561024957600080fd5b82018360208201111561025b57600080fd5b8035906020019184600183028401116401000000008311171561027d57600080fd5b91908080601f016020809104026020016040519081016040528093929190818152602001838380828437600081840152601f19601f820116905080830192505050505050509192919290803590602001906401000000008111156102e057600080fd5b8201836020820111156102f257600080fd5b8035906020019184600183028401116401000000008311171561031457600080fd5b91908080601f016020809104026020016040519081016040528093929190818152602001838380828437600081840152601f19601f8201169050808301925050505050505091929192908035906020019064010000000081111561037757600080fd5b82018360208201111561038957600080fd5b803590602001918460018302840111640100000000831117156103ab57600080fd5b91908080601f016020809104026020016040519081016040528093929190818152602001838380828437600081840152601f19601f8201169050808301925050505050505091929192908035906020019064010000000081111561040e57600080fd5b82018360208201111561042057600080fd5b8035906020019184600183028401116401000000008311171561044257600080fd5b91908080601f016020809104026020016040519081016040528093929190818152602001838380828437600081840152601f19601f820116905080830192505050505050509192919290505050610818565b005b6104c2600480360360208110156104ac57600080fd5b8101908080359060200190929190505050610c8e565b604051808981526020018060200180602001806020018060200180602001806020018060200188810388528f818151815260200191508051906020019080838360005b83811015610520578082015181840152602081019050610505565b50505050905090810190601f16801561054d5780820380516001836020036101000a031916815260200191505b5088810387528e818151815260200191508051906020019080838360005b8381101561058657808201518184015260208101905061056b565b50505050905090810190601f1680156105b35780820380516001836020036101000a031916815260200191505b5088810386528d818151815260200191508051906020019080838360005b838110156105ec5780820151818401526020810190506105d1565b50505050905090810190601f1680156106195780820380516001836020036101000a031916815260200191505b5088810385528c818151815260200191508051906020019080838360005b83811015610652578082015181840152602081019050610637565b50505050905090810190601f16801561067f5780820380516001836020036101000a031916815260200191505b5088810384528b818151815260200191508051906020019080838360005b838110156106b857808201518184015260208101905061069d565b50505050905090810190601f1680156106e55780820380516001836020036101000a031916815260200191505b5088810383528a818151815260200191508051906020019080838360005b8381101561071e578082015181840152602081019050610703565b50505050905090810190601f16801561074b5780820380516001836020036101000a031916815260200191505b50888103825289818151815260200191508051906020019080838360005b83811015610784578082015181840152602081019050610769565b50505050905090810190601f1680156107b15780820380516001836020036101000a031916815260200191505b509f5050505050505050505050505050505060405180910390f35b6107d46110fe565b6040518082815260200191505060405180910390f35b6108166004803603602081101561080057600080fd5b8101908080359060200190929190505050611104565b005b604051806101000160405280600054815260200188815260200187815260200186815260200185815260200184815260200183815260200182815250600160008054815260200190815260200160002060008201518160000155602082015181600101908051906020019061088e9291906111de565b5060408201518160020190805190602001906108ab9291906111de565b5060608201518160030190805190602001906108c89291906111de565b5060808201518160040190805190602001906108e59291906111de565b5060a08201518160050190805190602001906109029291906111de565b5060c082015181600601908051906020019061091f9291906111de565b5060e082015181600701908051906020019061093c9291906111de565b509050507fecb32e83958986235e7b1634f480ffb7077823737f57d2a8260973cf7709677460005488888888888888604051808981526020018060200180602001806020018060200180602001806020018060200188810388528f818151815260200191508051906020019080838360005b838110156109c95780820151818401526020810190506109ae565b50505050905090810190601f1680156109f65780820380516001836020036101000a031916815260200191505b5088810387528e818151815260200191508051906020019080838360005b83811015610a2f578082015181840152602081019050610a14565b50505050905090810190601f168015610a5c5780820380516001836020036101000a031916815260200191505b5088810386528d818151815260200191508051906020019080838360005b83811015610a95578082015181840152602081019050610a7a565b50505050905090810190601f168015610ac25780820380516001836020036101000a031916815260200191505b5088810385528c818151815260200191508051906020019080838360005b83811015610afb578082015181840152602081019050610ae0565b50505050905090810190601f168015610b285780820380516001836020036101000a031916815260200191505b5088810384528b818151815260200191508051906020019080838360005b83811015610b61578082015181840152602081019050610b46565b50505050905090810190601f168015610b8e5780820380516001836020036101000a031916815260200191505b5088810383528a818151815260200191508051906020019080838360005b83811015610bc7578082015181840152602081019050610bac565b50505050905090810190601f168015610bf45780820380516001836020036101000a031916815260200191505b50888103825289818151815260200191508051906020019080838360005b83811015610c2d578082015181840152602081019050610c12565b50505050905090810190601f168015610c5a5780820380516001836020036101000a031916815260200191505b509f5050505050505050505050505050505060405180910390a1600080815480929190600101919050555050505050505050565b6001602052806000526040600020600091509050806000015490806001018054600181600116156101000203166002900480601f016020809104026020016040519081016040528092919081815260200182805460018160011615610100020316600290048015610d405780601f10610d1557610100808354040283529160200191610d40565b820191906000526020600020905b815481529060010190602001808311610d2357829003601f168201915b505050505090806002018054600181600116156101000203166002900480601f016020809104026020016040519081016040528092919081815260200182805460018160011615610100020316600290048015610dde5780601f10610db357610100808354040283529160200191610dde565b820191906000526020600020905b815481529060010190602001808311610dc157829003601f168201915b505050505090806003018054600181600116156101000203166002900480601f016020809104026020016040519081016040528092919081815260200182805460018160011615610100020316600290048015610e7c5780601f10610e5157610100808354040283529160200191610e7c565b820191906000526020600020905b815481529060010190602001808311610e5f57829003601f168201915b505050505090806004018054600181600116156101000203166002900480601f016020809104026020016040519081016040528092919081815260200182805460018160011615610100020316600290048015610f1a5780601f10610eef57610100808354040283529160200191610f1a565b820191906000526020600020905b815481529060010190602001808311610efd57829003601f168201915b505050505090806005018054600181600116156101000203166002900480601f016020809104026020016040519081016040528092919081815260200182805460018160011615610100020316600290048015610fb85780601f10610f8d57610100808354040283529160200191610fb8565b820191906000526020600020905b815481529060010190602001808311610f9b57829003601f168201915b505050505090806006018054600181600116156101000203166002900480601f0160208091040260200160405190810160405280929190818152602001828054600181600116156101000203166002900480156110565780601f1061102b57610100808354040283529160200191611056565b820191906000526020600020905b81548152906001019060200180831161103957829003601f168201915b505050505090806007018054600181600116156101000203166002900480601f0160208091040260200160405190810160405280929190818152602001828054600181600116156101000203166002900480156110f45780601f106110c9576101008083540402835291602001916110f4565b820191906000526020600020905b8154815290600101906020018083116110d757829003601f168201915b5050505050905088565b60005481565b60016000828152602001908152602001600020600080820160009055600182016000611130919061125e565b600282016000611140919061125e565b600382016000611150919061125e565b600482016000611160919061125e565b600582016000611170919061125e565b600682016000611180919061125e565b600782016000611190919061125e565b50507ff15fc917dc033dd2bae6e5e9557c5df76e5e081d8eedf16625de9a90cdbc9a2f816040518082815260200191505060405180910390a160008081548092919060019003919050555050565b828054600181600116156101000203166002900490600052602060002090601f016020900481019282601f1061121f57805160ff191683800117855561124d565b8280016001018555821561124d579182015b8281111561124c578251825591602001919060010190611231565b5b50905061125a91906112a6565b5090565b50805460018160011615610100020316600290046000825580601f1061128457506112a3565b601f0160209004906000526020600020908101906112a291906112a6565b5b50565b6112c891905b808211156112c45760008160009055506001016112ac565b5090565b9056fea265627a7a723158201bd276a9414b6faa6abe442869617a3e7bf2a227f287aece0fb6302ecea59b7064736f6c63430005100032",
  "source": "// SPDX-License-Identifier: MIT\r\npragma solidity >=0.4.22 <0.9.0;\r\ncontract PatientContract{\r\n    uint256 public patientCount=0;\r\n\r\n    struct Patient{\r\n        uint256 id;\r\n        string p_name;\r\n        string p_mobileNo;\r\n        string p_adharNo;\r\n        string p_address;\r\n        string p_age;\r\n        string p_gender;\r\n        string p_datetime;\r\n    }\r\n    mapping(uint256=>Patient) public patients;\r\n\r\n    event RegisterPatientToDapp(uint256 id,string p_name,\r\n        string p_mobileNo,\r\n        string p_adharNo,\r\n        string p_address,\r\n        string p_age,\r\n        string p_gender,\r\n        string p_datetime);\r\n    event DeletePatientToDapp(uint256 id);\r\n\r\n    function registerPatientDapp(string memory _name,string memory _mobileNo,string memory _adharNo,string memory _address,string memory _age,string memory _gender,string memory _datetime) public {\r\n        patients[patientCount] = Patient(patientCount,_name,_mobileNo,_adharNo,_address,_age,_gender,_datetime);\r\n        emit RegisterPatientToDapp(patientCount, _name, _mobileNo, _adharNo, _address, _age, _gender, _datetime);\r\n        patientCount++;\r\n    }\r\n\r\n    function deletePatientDapp(uint256 _id) public {\r\n        delete patients[_id];\r\n        emit DeletePatientToDapp(_id);\r\n        patientCount--;\r\n    }\r\n}",
  "sourcePath": "D:\\Desktop\\My apps\\happycare\\contracts\\patientContract.sol",
  "compiler": {
    "name": "solc",
    "version": "0.5.16+commit.9c3226ce.Emscripten.clang"
  },
  "schemaVersion": "3.4.16",
  "updatedAt": "2023-10-31T13:51:45.263Z",
  "networkType": "ethereum",
  "devdoc": {
    "methods": {}
  },
  "userdoc": {
    "methods": {}
  }
}